:020000040800F2
:10000000C00E002039010008691F0008471E0008C3
:1000100000000000000000000000000000000000E0
:10002000000000000000000000000000EB1F0008BE
:100030000000000000000000E91F0008ED1F00089C
:100040004B010008000000004B0100084B010008B4
:100050004B0100084B0100084B0100084B01000850
:10006000000000004B0100084B0100084B01000894
:100070004B0100084B0100084B0100080000000084
:100080004B01000800000000000000004B010008C8
:10009000000000004B0100084B0100084B01000864
:1000A000000000004B010008000000004B010008A8
:1000B00000F002F800F030F80CA030C8083824181E
:1000C0002D18A246671EAB4654465D46AC4201D190
:1000D00000F022F87E460F3E0FCCB6460126334292
:1000E00000D0FB1AA246AB463343184764390000E0
:1000F000843900000023002400250026103A01D393
:1001000078C1FBD8520700D330C100D50B607047CF
:100110001FB51FBD10B510BD01F0DCF81146FFF78B
:10012000F7FF02F0CFFF01F0F4F803B4FFF7F2FF9E
:1001300003BC01F0F7F80000074880470748004774
:10014000FEE7FEE7FEE7FEE7FEE7FEE704480549B7
:10015000054A064B704700004F200008B100000818
:10016000C0080020C00E0020C00A0020C00A0020E5
:10017000FEB5054610460C46184373D0AE468C4675
:100180000020AD1A01469C4167D366460027012432
:100190003D46B61A9D4102D313463A462124654690
:1001A00076462F04360C3E432D0CB61A9D4104D3DF
:1001B000150C1B042B4312041034654676462F069B
:1001C000360A3E432D0AB61A9D4104D3150E1B0272
:1001D0002B4312020834654676462F0736093E4304
:1001E0002D09B61A9D4104D3150F1B012B43120193
:1001F000241D65467646AF07B6083E43AD08B61ADD
:100200009D4104D3950F9B002B439200A41C65468F
:100210007646EF0776083E436D08B61A9D411AD31D
:1002200092185B41641C16E0001876466546494109
:10023000B71A9D410191009009D36046B11A9841C7
:100240008E468446009801990025401C6941DD07CF
:1002500052082A435B08641EE6D57246634603B023
:10026000F0BDFFE700200146C046C0462A462346AF
:10027000F5E701E004C0091F0429FBD28B0701D573
:100280000280801CC90700D00270704700290BD083
:10029000C30702D00270401C491E022904D3830701
:1002A00002D50280801C891EE3E70022EEE70022CF
:1002B000DFE7002203098B422CD3030A8B4211D3C0
:1002C00000239C464EE003460B433CD400224308E7
:1002D0008B4231D303098B421CD3030A8B4201D3D7
:1002E00094463FE0C3098B4201D3CB01C01A52416F
:1002F00083098B4201D38B01C01A524143098B42BF
:1003000001D34B01C01A524103098B4201D30B01A7
:10031000C01A5241C3088B4201D3CB00C01A5241CC
:1003200083088B4201D38B00C01A524143088B4291
:1003300001D34B00C01A5241411A00D2014652412A
:10034000104670475DE0CA0F00D04942031000D349
:100350004042534000229C4603098B422DD3030A9E
:100360008B4212D3FC22890112BA030A8B420CD3AE
:10037000890192118B4208D3890192118B4204D3D7
:1003800089013AD0921100E08909C3098B4201D357
:10039000CB01C01A524183098B4201D38B01C01A91
:1003A000524143098B4201D34B01C01A5241030908
:1003B0008B4201D30B01C01A5241C3088B4201D3B7
:1003C000CB00C01A524183088B4201D38B00C01A64
:1003D0005241D9D243088B4201D34B00C01A52413B
:1003E000411A00D20146634652415B10104601D3C8
:1003F0004042002B00D54942704763465B1000D352
:10040000404201B50020C046C04602BD704770475B
:10041000704700000246C80FC00781434B0030B54B
:100420004B405B009B0D20D01923DB06C91801232C
:100430001B05994220DB0324A40704251346AB4087
:100440000BD3002B04D1EB0613409B00E34204D4F2
:1004500001246407002312195941FF231B05994207
:100460000BD2C9000143500F09E0CB0204D5014370
:100470000803024305D0054830BDFF21C9050843E4
:1004800030BD084607210905884330BD0000C07F04
:10049000F0B50C46871A9C410D46861A9D4103D241
:1004A000C01BA141D21963410D0D1F0DC94EEC1B9C
:1004B000AE435CD07F057F0D0026002F51D02D0567
:1004C000AC46A943DD020123ED0A1B051D43202391
:1004D0001B1B24D41746E740381871412F46E740CC
:1004E000CC199D402818314661410C0D27D161443B
:1004F0009A4013D50023401C594152000ED14008A8
:10050000400001224B005205D34207D3052040078B
:10051000C14201D5B04900E0B0493046F0BD6B00A2
:10052000002A00D001229A181F23203C1B1B01D552
:10053000002302E0E540281871410C0DD7D00124BA
:1005400024050919C407CD0740084908E40F2843CA
:100550006144002CD5D00024401C61419A40D0D188
:10056000CDE76A05520DD9D1C90FC907D5E79C4D12
:100570004E00002801D0012400E0002434195F005F
:10058000002A01D0012600E00026BE19954FAC429A
:100590000CD8AE420AD8B44206D001256D05EC4213
:1005A000BCD010461946F0BD9942FCD00020394617
:1005B000F0BDF0B51FB40C460F46811A9F41254689
:1005C000861A9D4106D20125ED076F40401ABC41B5
:1005D00052187B41210D1E0D8D1BAC467D4D8D4368
:1005E0007ED075056D0D7CD00D05AE46AC431B036A
:1005F0001B0B794D52429D41202366469B1B14D311
:100600001746F740381800260090744160462F4680
:100610000741E41900989D402818664116D4714698
:1006200071189A4025D5012320E093182A466A4183
:100630005200002B00D0521C1E23203E9B1B002B7F
:1006400061DD3541EE1728186641E8D5001876417E
:100650005B1C9A4000D3401C4B05F3181524E34063
:1006600010D3002B52D071467118D30FC01802D38B
:10067000491C05B0F0BD0123DB079A42F9D14008BF
:100680004000F6E701225205B21801D1002853D0EC
:100690000123CC0ADB029943891E002A08D1020CEF
:1006A00003D0020C0004103902E002460020203979
:1006B0000023550B05D112020823550B01D152011D
:1006C0000D23550C01D112011B1DD50C01D1920037
:1006D0009B1C150D01D152005B1C2025EE1A01E078
:1006E0002CE022E00546F54015439840CA1AE10780
:1006F00069181305C918002ABBDA03204007081837
:10070000C10FC9070FE071466118B2E7F107400851
:100710000843711071444A000CD001235B059A42D2
:10072000A7D2C90FC9070020A3E74905490D26D163
:10073000002001E00028F4D100219AE7284D66004E
:10074000002801D0012100E0002171185F00002A7B
:1007500001D0012600E00026BE19224FA94210D880
:10076000AE420ED8B14208D001256D05E94206D04F
:100770001946A802414010467BE79C4201D0214621
:1007800077E70020394674E710B50C465C4005D584
:100790000124E4076340FFF70CFF10BDFFF778FE6C
:1007A00010BD30B40C465C4004D50124E40763401E
:1007B00030BC6DE630BCFCE670B50124E407614056
:1007C0000D465D4002D4FFF763FE70BD6340FFF746
:1007D000F0FE70BDFF0700000000F0FF0000F07F9A
:1007E0000000E0FF0000F87F30B50346CA02400D6C
:1007F0001043164D164C0A1502D02043002A06DB82
:10080000AA1A002A12DDD040FF2A0BDC30BD5205A7
:10081000520D01D140004008AA1A07D4D0404042EE
:10082000FF2A01DD002030BD0028FCDD4A00002B3E
:1008300001D0012000E00020101801225205D04212
:10084000F0D8C817C043604030BD00001E0400004F
:1008500000000080F0B58B4C0F09254689B0BD43E0
:100860007BD01D092646AE43FAD00E465E40274097
:10087000F60F3E43254071D024012142FBD0FF24D6
:10088000AD19A4042D1B039501252D05DB02DB0A00
:10089000C9022B43C90A29431E010901040F130F82
:1008A000050121431701880B820391432D098C46D2
:1008B000A90B1E438A039543B30B9A0396433F0942
:1008C000BA0B9403A74302962E467E430497B6467E
:1008D0004E19D7190C460196544305977E43371B92
:1008E0007646BF1B3601B646BE0B361900967646D5
:1008F000BC043719009C01D3641C00946400002FD1
:1009000001D001263443029E049F754366467E4310
:100910000496760034196E0034190094029C019EEE
:100920001C196643751BAE46069465464519059C21
:1009300005956C43594375460891691A0191049EC7
:1009400001465143A41B0491611A009C0791E106E2
:1009500005D061090122114302E072E06EE06109F5
:10096000089D00272C0A2D066918049D7C412A0A3F
:100970002D066918019D6241AC0DAD026D18544100
:10098000079A910D920255196141029A64465843A3
:100990005443069B059A5A43121A131B9A0E9B0145
:1009A0005B187A41010B0005C3185141220A200649
:1009B00044195A419A4200D2491C01204002814206
:1009C00003D315230226F64302E014230326F6433D
:1009D0002020C51AA9401746AF40DA400A432046F6
:1009E0000399D8400914731819055118039A38430C
:1009F000D2075140AC4009D00122944006D30022D6
:100A0000401C5141002C01D1400840001E4A934235
:100A100012D3012203989206904207DB052040077B
:100A200009181A480143C012414004E0032040075E
:100A30000818C10FC907002009B0F0BD0020F10758
:100A4000FAE705180C464C4111486D42A04115D3F8
:100A500094181A465A410E48644290410ED3012020
:100A60004A004005824209D35A00824206D35940C7
:100A7000C90F084AC90700201143DDE700200649D5
:100A8000DAE700000000FF07FE070000FFFFFF7F1E
:100A90000000E0FF0000F07F0000F87F0121C905A1
:100AA0000123411842001B06D3185B0E0AD0C11067
:100AB0000722D206891840075242D14201D552007E
:100AC00089187047090208D50146002A03D0C10FD2
:100AD000C9070020704710467047420202D000202C
:100AE00002497047072109050143F4E70000F87F38
:100AF000F0B5FF252D04C609C209FF2704462E4084
:100B00000137CB093E4348402A402B400746002A84
:100B10006BD0002B69D0AA4267D0AB4265D00028C9
:100B200000DA32460125ED0529432C430902200253
:100B3000090AD21A4B0C7F24E31A434C000A7C4466
:100B4000E35C7D242404121914145B00A21888426B
:100B500001D3521C00E0400049420C465C43241182
:100B60005C43DB016415E318040A5C43C502200DF5
:100B70000C4644436419250A5D432303EC0C0D46DF
:100B8000654300030019EB184C42A34201D35B18E4
:100B9000401CD4052018002B07D05B00C91804D3D3
:100BA000401C002901D1400840003F2189048A42AD
:100BB00009D3002A08DC1106090F04D003214907D4
:100BC0004018C00FC007F0BD01224100120689186D
:100BD0007F2252069142F6D205214907C84201D52B
:100BE0009010F0BDFF20C005F0BD002F00DA3246A6
:100BF0001648AA4207D2AB4205D21902090E17D0F5
:100C0000F80FC007F0BDFF2563002D06AB42F9D8F1
:100C10004900A942F6D8AB4201D1A942F2D0A9427B
:100C200001D1002101E061004908D0050843F0BD71
:100C30001102090EFBD0FF200243D005F0BD0A4689
:100C40000146104654E70000462C00000000C07F1B
:100C50001F22030C02D10F2200041CD0030E01D16D
:100C60000002083A030F01D10001121F830F01D1C6
:100C70008000921E002801DB4000521ED205511850
:100C8000021251181922904004D3491C002801D1A6
:100C90004908490008467047C10FC90700D04042C3
:100CA000012292071143D3E701218907D0E710B54C
:100CB00000F0DCFA006810BD10B5044600F0D6FA6A
:100CC000046010BDF0B5F94D0C091E092C402E40F2
:100CD0002F468BB0A7437DD0B543FCD0002E7AD0F1
:100CE000002CFCD00D465D40ED0F2543AC1BFF25CD
:100CF000AD0464190894C502440DC9022143500D86
:100D0000DC0204430120C00701430443D2020191E5
:100D1000200C110C00958C46010423468B430A914C
:100D200061460904E24D8A430991010A7D4449194B
:100D30008039097805464D4301266D18F605751B67
:100D40006943C90C640B891C4C436418B5012C1B06
:100D5000250C2E04B4434C434D43210C69188909DA
:100D60000591009DE90701D00121C90704912C4696
:100D700001996708CD072F434C08059DE10B4D43B2
:100D80002D0C29466646754302950D4645432E4671
:100D9000029D7D1BB44100950D465D4301942C0CD2
:100DA0002F040D465543AE462D0C3D43029503944A
:100DB0007546049C2D04641B049406D2029C039D7A
:100DC000641C002675410395029401AC70CC009F11
:100DD0007D1B01E03EE162E1B44109040095079109
:100DE00001940599A4086143090C0C464443650B22
:100DF000E7040C4666467443A646640B3C430395E1
:100E000002947446049DE4042C1B049406D2029CB4
:100E1000039D641C002675410395029401AC70CCBF
:100E2000009F7D1BB44101940C465C430095650F07
:100E3000E7000C465443A646640F3C4303950294D6
:100E40007446049DE4002C1B049406D2029C039D6E
:100E5000641C002675410395029401AC70CC009F80
:100E60007D1BB441AE09AF06049DC900AD092F43F7
:100E7000049DA406AD060495079D344369180791A7
:100E8000059DE10B4D432D0C2946664675430295A1
:100E90000D4645432E46029D7D1BB44100950D46EF
:100EA0005D4301942C0C2F040D465543AE462D0C8A
:100EB0003D43029503947546049C2D04641B0494E1
:100EC00006D2029C039D641C002675410395029482
:100ED00001AC70CC009F7D1BB44101948C0506943D
:100EE000079C890A611800950791019C0599A4083F
:100EF0006143090C0D464543680BEF040D466446FB
:100F000065436C0B3C43049FED047D1BAC4602D251
:100F10000025641C6841009E019D371B85410846E1
:100F2000584301950C46460FC5005443600F2843B3
:100F30006546E4002C1B02D20025401C6E41019D39
:100F40003F1AB5412846BD09800628438446A009BA
:100F5000BF064E020699A40676180743079D002097
:100F600068410A99079019430020099B0090604648
:100F7000FF1913434041E20F64003A43A44604467C
:100F8000D71A8C41A04203D90120009020463A464E
:100F9000C70F941840416246D20F22436446640052
:100FA0000494009CBE466400D71AA44604460297E7
:100FB0008C417746002F01D1A04204D96046401CE5
:100FC0008446029A2046C40FA64694184041049ACB
:100FD0000546D20F224364466400D31A8D41714600
:100FE000002901D1A84202D928461A46641C1043A0
:100FF0000122002800D0164361020020079B8919B6
:1010000004465C410223002C02DB4918134664416C
:10101000089DCE0A2D145D194B056705E10A2C05C4
:101020000D1908993E43C9076940002B08D0934029
:1010300006D30022761C5141002B01D176087600A0
:101040001C4A002D43DB154241D0AA433FD0304615
:101050000BB0F0BD06180D464D41174C7642AC4121
:101060001AD395181C465C41134A6D42A24113D312
:10107000012252054C00D4420AD15C00D4420BD06C
:101080004B4002D592021143E2E749004908DFE7ED
:101090005940C90FC90718E000200849D8E705489A
:1010A00001420DD10342F7D0F2E700000000FF0734
:1010B000802B00000000F07F0000E0FF0000F87FC0
:1010C000114859400143C01241400020C0E70123AC
:1010D000089A9B069A4205DC032252078918C90F19
:1010E000C907B5E7052252078918074A1143D212EA
:1010F0005140ADE770B515461C4602460B462846E2
:101100002146FFF7DFFD70BDFFFFFF7F70B505468D
:101110004800440D124B0020002C0AD0634008D038
:101120009A4206DA6642B24203DD12054019514185
:1011300070BD002C08D0002B09D0C90FC907002AA8
:10114000F6DB084A114370BDC90FC90770BD2846B8
:101150000A03104302D00020034970BD284670BD29
:10116000FF0700000000F07F0000F87FF0B53D4B66
:1011700002460C461C400020002C63D03A4D8B43A5
:1011800066D000296BDB0B0D1D05A94301252D053C
:1011900029430124FD33E34001D392184941FF3331
:1011A00081339C468B02940D0121234389074C42D5
:1011B000920200271B198C105D1A04D42D1B02D437
:1011C0002B466500491992185B416408F4D15C1AFA
:1011D00008D40125ED07EE175519744102D42A46AB
:1011E0002346491C94185B41012292071D46E61BC9
:1011F0008D4106D4B61A854103D42B46550034469A
:101200007F1924195B415208802AEFD1234300D073
:10121000022338460A22D04001D3012213438A0513
:1012200010436246890A12058918002B09D0012251
:10123000D34002D30022401C5141002B01D1400871
:101240004000F0BD0B03134307D0C90FC907F0BD21
:101250000803104303D1002901DB1046F0BD002034
:101260002946F0BD0000F07F0000F87F004870477D
:101270005C0800201F22030C02D10F22000402D0C0
:10128000030E03D004E00020014670470002083A34
:10129000030F01D10001121F830F01D18000921EA4
:1012A000002801DB4000521E120551184205C012F1
:1012B000411810467047C10FC90700D040420122B3
:1012C00092071143D6E701218907D3E70048704709
:1012D0005C0800207546FFF7F9FFAE460500694639
:1012E0005346C008C000854618B020B5FEF72EFF53
:1012F00060BC00274908B6460026C0C5C0C5C0C5A9
:10130000C0C5C0C5C0C5C0C5C0C5403D49008D46AB
:10131000704710B50446C046C0462046FEF705FF9C
:1013200010BD000001491820ABBEFEE726000200F8
:10133000704770B58C180578401C6B075B0F01D1A6
:101340000378401C2A1106D10278401C03E006787D
:10135000401C0E70491C5B1EF9D12B0705D40023DD
:10136000521E0DD40B70491CFAE70378401CCB1AAF
:10137000921C03E01D780D70491C5B1C521EF9D5B0
:10138000A142D8D3002070BD70B5044600F0E6F845
:101390000546601C02D004480078241800F0DEF8EE
:1013A000401BA042FAD370BDD4070020F8B500233B
:1013B00003240125BAE02E469E40B44632407CD03C
:1013C0000E79B607B60F012E01D0022E17D186680E
:1013D0002746B6465E00B74000967646BE43B64600
:1013E000CF68009EB74076463743876046686746B9
:1013F000BE430F79FF06FF0F9F40374347600E79CA
:10140000F643B6070ED0C6682746B4465E00B64619
:10141000B7406646BE43B4468F687646B7406646D8
:101420003743C7600E79B607B60F022E14D1DE0817
:10143000B60036180096366A5F07B446FE0E0F27D0
:10144000B646B7406646BE43B4460F697646B740D7
:1014500066463743009E376206682746B4465E00FC
:10146000B646B7406646BE430F79B446BF07BF0FC6
:101470007646B7406646374307604E68B603B60FF8
:1014800053D02D4FBE692E43BE61BE699F08F6073B
:10149000F60F2A4EBF00BE190096B6680F27B44655
:1014A0009E07360FB646B7406646BE430927FF067D
:1014B000B446B84202D1002710E036E0204FB842CF
:1014C00001D101270AE01F4FB84201D1022705E0F0
:1014D0001D4FB84201D1032700E005277646B740EB
:1014E00066463743009EB760184EB6684F6896430D
:1014F000FF0200D51643154FBE60FE684F68964345
:10150000BF0200D51643114FFE607E684F689643B8
:10151000BF0300D516430D4F7E603E684F6896436B
:10152000FF0300D51643094A16605B1C0A6816467D
:10153000DE4000D03FE7F8BD00100240000001404F
:101540000004004800080048000C00480004014066
:10155000002A01D08161704781627047014880682C
:1015600070470000D407002002488168027889187B
:1015700081607047D407002010B50648016810222A
:1015800011430160032000F007F800F027F8002065
:1015900010BD00000020024070B504460D4D7D20B6
:1015A0002978C000FEF785FE01460B480068FEF76B
:1015B00080FE00F09DFA002809D1042C07D20022F9
:1015C0002146401E00F01EF800206C6070BD012016
:1015D00070BD0000D4070020E007002008B50848CF
:1015E0008169012211438161816911400091C269C1
:1015F00001040A43C261C0690840009008BD0000B0
:101600000010024010B500F0A7FE10BDF8B50F465F
:10161000060059D03A4D2868C007C00FB84209D219
:10162000286840084000384328602868C007C00F79
:10163000B84249D13068334C81070CD5400704D5F6
:10164000606807210902084360606068F0218843F0
:10165000B168084360603078C00726D07068012800
:101660000ED0216802280ED0890700292CDA616883
:101670008908890001436160FFF770FF00900DE069
:1016800021688903F1E78901EFE7FFF767FF009918
:10169000411A1D48814201D90320F8BD60680C2120
:1016A0000840716889008842EFD12868C007C00FE0
:1016B000B8420BD9286840084000384328602868A1
:1016C000C007C00FB84201D00120F8BD30784007F4
:1016D00006D56068072109028843F1680843606005
:1016E00000F018F86168094A0906090F515CC84002
:1016F000074908600320FFF74FFF0020F8BD0000F6
:1017000000200240001002408813000078370008D3
:10171000E007002010B5104A51680C200B4603402A
:101720000E48042B17D0082B15D18B020C4C1B0F25
:10173000E45CD26A0A4B1207120F10339A5CC90399
:1017400005D500231946FEF713FD214601E020468A
:10175000044900F0D3FD10BD0010024000127A00D1
:101760005837000800093D00FEB5040070D020780D
:10177000DC4DC0074AD068680007800F012807D0F9
:1017800068680007800F022809D16868C00306D581
:10179000286880033AD560680028E7D036E06168A1
:1017A000012914D001208004002901D0052914D07A
:1017B0002A68012109048A432A6029688143296033
:1017C0006068002816D0FFF7C9FE06460EE02868BC
:1017D0000121090408432860F2E7296801432960D0
:1017E000F5E7FFF7BBFE801B64286ED828688003EE
:1017F000F7D50BE0FFF7B2FE064604E0FFF7AEFEBA
:10180000801B6428F1D828688003F7D4207801264B
:10181000800700283CDA68680007800F07D06868F6
:101820000007800F022809D16868C00306D4286821
:10183000800716D5E06801280AD112E0E068002888
:10184000286816D030432860FFF788FE074605E079
:1018500043E1FFF783FEC01B0228C6D82868800733
:10186000F7D52868F82188432169C9000843286012
:101870000EE0400840002860FFF770FE074604E0D5
:10188000FFF76CFEC01B0228AFD828688007F7D48A
:101890002078000722D5E0690028686A0ED030431E
:1018A0006862FFF75BFE074604E0FFF757FEC01BC8
:1018B00002289AD8686A8007F7D50FE040084000F0
:1018C0006862FFF74BFE074605E09DE0FFF746FE26
:1018D000C01B022889D8686A8007F7D420780427BB
:1018E0004007002860DA00200190E869C00008D4B1
:1018F000E969B8060143E961E96901400120009105
:10190000019079480168C90511D401688215114315
:101910000160FFF723FE009005E0FFF71FFE00992E
:10192000401A642870D870480068C005F5D5A068D2
:1019300001280AD0002801D0052810D0286A4008C4
:1019400040002862286AB84301E0286A30432862D0
:10195000A068002812D0FFF701FE00900AE0286A74
:1019600038432862F1E7FFF7F9FD0099411A5F4813
:10197000814249D8286A8007F5D50DE0FFF7EEFDD2
:10198000009006E0FFF7EAFD0099411A57488142AE
:101990003AD8286A8007F5D40198002804D0E9696C
:1019A000012000078143E9612078C00635D56069D0
:1019B00001280CD0401D686B23D038436863686BE6
:1019C000400840006863FFF7C9FD064622E0686BE7
:1019D00038436863686B30436863FFF7BFFD0646B2
:1019E00004E0FFF7BBFD801B02285BD8686B800713
:1019F000F7D5686BF8218843A169C900084368637B
:101A00000BE0B8436863F4E74CE0FFF7A7FD801BE9
:101A1000022847D8686B8007F7D4206A00285ED078
:101A200069680907890F022942D001263606022873
:101A3000286805D0B0432860FFF790FD044633E0E6
:101A4000B0432860FFF78AFD074604E0FFF786FDF4
:101A5000C01B022826D828688001F7D4E86AE16A0A
:101A6000000900010843E862616AA06A08436968E6
:101A70003D2212049143084368602868304328607F
:101A8000FFF76CFD044604E0FFF768FD001B022829
:101A900008D828688001F7D521E0FFF75FFD001B1B
:101AA000022801D90320FEBD28688001F5D416E084
:101AB0000128F8D06868E96A01221204636A0240CA
:101AC0009A420AD10907E26A090F914205D10F2112
:101AD00089040840A16A884201D00120FEBD00208F
:101AE000FEBD00000010024000700040881300009E
:101AF000094910B5401E884201D9012010BD074C8C
:101B000060610321081F00F027FC0020A06107206E
:101B10002061002010BD0000FFFFFF0000E000E09A
:101B2000F0B502462032137F012B1BD00126167719
:101B30000223537705686B68AC687027BB430F6856
:101B40001F436F600068084B984202D0074B9842D1
:101B500004D1802349689C4321438160567700204B
:101B60001077F0BD0220F0BD002C014000040040C1
:101B700070B5040005D025462035687F002802D0C6
:101B800006E0012070BD00202877204600F014F800
:101B900002206877211D206800F05AFA01204034A5
:101BA000A071A877E87720706070A070E070207155
:101BB00060716877002070BD08B5006805498842EB
:101BC00007D10548C26902210A43C261C0690840C1
:101BD000009008BD0004004000100240F8B5054622
:101BE00004462035287F0026012817D001202877B9
:101BF00002206877226890687727FF23B8431B028A
:101C0000984390600868502838D00EDC20284FD0C8
:101C100006DC00284CD010281ED149E00220F8BD77
:101C2000302845D0402817D13AE060282ED07028BF
:101C300019D001221203801A0FD090420CD1CB6828
:101C40004A688968206800F03FFA206881680122AC
:101C500092031143816000E0012601206877002093
:101C600028773046F8BDCB684A688968206800F05C
:101C70002BFA2168886838438860EEE7CA684968AB
:101C8000206800F017FB5021206806E0CA68496808
:101C9000206800F020FB6021206800F020FADCE7DB
:101CA000CA684968206800F005FB40212068F4E715
:101CB000226801461046F0E770B586B0044614214C
:101CC0006846FEF7F4FA16492068884225D115487F
:101CD000426949130A43426142690A4005924269D6
:101CE00049000A4342614069002408400590C02031
:101CF0000090022501260920029469460496019568
:101D00000394C006FFF752FB00950294694606480B
:101D1000049601950394FFF749FB06B070BD0000DF
:101D2000000400400010024000040048F8B50646D8
:101D300004462036307F00270D4601280ED00120B2
:101D40003077002A0CD0042A1BD0082A2FD00C2A66
:101D50003ED00127002030773846F8BD0220F8BD7C
:101D6000206800F0C5F9206881690822114381616B
:101D70002068826904218A438261206881692A6916
:101D800012E0206800F0F0F9206882690121C902A0
:101D90000A43826120688169012292029143816134
:101DA000206881692A69120211438161D2E72068A3
:101DB00000F014FA2068C16908221143C16120684B
:101DC000C26904218A43C2612068C1692A6912E09C
:101DD000206800F03FFA2068C1690122D202114355
:101DE000C1612068C269012189028A43C2612068F9
:101DF000C1692A6912021143C161ABE770B50400E1
:101E000005D025462035687F002802D006E0012055
:101E100070BD00202877204600F014F80220687773
:101E2000211D206800F014F901204034A071A8772A
:101E3000E87720706070A070E07020716071687742
:101E4000002070BD7047FEE710B586B014216846CB
:101E5000FEF72DFA11484269012149040A43426103
:101E600042690A400592426949000A434261406959
:101E700009240840E4060590002210212046FFF7BF
:101E800067FB102000900021012002910391019036
:101E900069462046FFF78AFA06B010BD00100240DE
:101EA00010B58EB000240794089409940A940B94FA
:101EB0001C2168460C94FEF7FAF92948274901606D
:101EC0002F2184604160046126498461C160FFF76D
:101ED0004FFE002801D072B6FEE7012000030790F4
:101EE00007A91F48FFF77AFE002801D072B6FEE767
:101EF0001B48FFF783FF002801D072B6FEE70B9462
:101F00000BA917480C94FFF70BFE002801D072B6FE
:101F1000FEE7602000900194029400226946049438
:101F20000F48FFF703FF002801D072B6FEE7042236
:101F300069460B48FFF7FAFE002801D072B6FEE7AB
:101F40000C2269460648FFF7F1FE002801D072B660
:101F5000FEE70348FFF7B0FE0EB010BD00040040DE
:101F6000E4070020FFFF0000FEE710B50368012230
:101F700013430360436CD40323434364002908D014
:101F8000042908D008290BD00C2908D1016A1203B2
:101F900003E0016A01E0016A10221143016210BDF1
:101FA000016AFF220132F8E7002907D0042907D08F
:101FB000082907D00C2900D102647047426370479A
:101FC00082637047C263704710B50A46816A04464F
:101FD0000448491C51430068FEF76BF9401EE0625B
:101FE00010BD0000E00700207047704710B5FFF7F4
:101FF000BBFA10BD30B591B030216846FEF757F9F5
:1020000000240D94012003900E94022510200994C1
:102010000490009505200F94C0040A900C94089534
:102020000B946846FFF7A0FB002801D072B6FEE7CC
:1020300007200C900E9401210D950F940CA8FFF72A
:10204000E5FA002801D072B6FEE711B030BD704746
:1020500070B50268174B184E984201D0B04203D1B8
:102060007024A2434C682243144C154D984208D06A
:10207000B04206D0134EB04203D0A04201D0A842D5
:1020800004D103263602B243CE6832438026B243DF
:102090004E69324302608A68C2620A68826298426C
:1020A00003D0A04201D0A84201D1096901630121F6
:1020B000416170BD002C014000040040004401401B
:1020C000004801400020004030B58468FF252D0203
:1020D0001B021343AC430B432343836030BD826830
:1020E00070239A430A4307210A4382607047000025
:1020F000F0B5026A520852000262056A43688269BA
:102100007024A24392080C68920014430222954363
:102110008A68134E2A43114DA84204D0B04202D01F
:10212000104FB84206D10827BA43CF68174304229C
:1021300097433A46A84204D0B04202D0094DA84283
:1021400006D103252D02AB434D691D438B692B43FB
:1021500043608461496841630262F0BD002C014024
:10216000004401400048014070B5026A10239A43C0
:102170000262046A4368826973252D02AA430D68CE
:102180002D021543202294438A6812012243104CE9
:10219000A04208D11446CA688026B44312012243E3
:1021A0004024A24305E00B4CA04202D00A4CA042BE
:1021B00008D10324A402A3434C69A4001C438B69E7
:1021C0009B0023434360856149688163026270BD5F
:1021D000002C0140004401400048014070B5026AF3
:1021E000FF2301339A430262046A4368C26970257F
:1021F000AA4392080D6892001543012252029443AB
:102200008A6812022243104CA04207D1C414A24390
:10221000CC68240222430615B24305E00B4CA042D1
:1022200002D00B4CA04208D103242403A3434C69E1
:1022300024011C438B691B0123434360C56149682A
:10224000C163026270BD0000002C014000440140E7
:102250000048014030B5026A01231B039A43026221
:10226000056A4268C36973242402A3430C682402EC
:102270001C4301235B039D438B681B032B430A4DC7
:10228000A84205D0094DA84202D0094DA84205D167
:102290000125AD03AA434D69AD012A434260C461E3
:1022A00049680164036230BD002C014000440140D4
:1022B0000048014030B5036A046A6408640004629F
:1022C0008469F025AC43120122430A24A3430B4343
:1022D0008261036230BD30B5036A1024A3430362F8
:1022E0008469036A0F252D031203AC432243A02403
:1022F000A343090119438261016230BDF8B5040CA2
:102300008BB2264682B25E430D0C1046370C584302
:10231000360480190021794116466E43370C360485
:102320008019794126466E438919F8BD4900CA02D1
:102330000243100000D004204A0D01D001221043B6
:10234000044A490D914201D102210843012800D1DC
:1023500005207047FF0700008307FF22DB0E9A402D
:102360008907090E9940002808DB830809489B006B
:102370001B18186890430843186070470007000F47
:102380000838830804489B001B18D8699043084309
:10239000D861704700E400E000ED00E0F7B596B0CA
:1023A00014460021A160D160179909914D00CD49D3
:1023B0006D088D4205DC179961602060002019B01E
:1023C000F0BDC949C94E8D4238DAD32709997F0536
:1023D0000029C74A1799334617DDFEF7E2F9B542DF
:1023E00006D0C44AC44BFEF7DCF96160206009E006
:1023F0003A46C14BFEF7D5F9C04AC14BFEF7D1F9B9
:1024000061602060012019B0F0BDFEF7BDF9B54252
:1024100006D0B84AB84BFEF7B7F96160206009E012
:102420003A46B54BFEF7B0F9B44AB54BFEF7ACF9F6
:10243000616020600020C04319B0F0BDB1498D42F9
:10244000179977DC490049080746AF4AAF4B04911A
:10245000FEF700FA0022AE4BFEF796F9FEF7C4F93C
:102460000A90FEF728FFA24A334603910290FEF736
:10247000F1F93A46049BFEF79FF906460F469D4A3E
:102480009D4B03990298FEF7E5F92A0D01250C9260
:1024900032463B46FEF790F961602060032D39D04B
:1024A0004800410D0C98401A6901691811398142A0
:1024B00030DA98492801794408960D900818049755
:1024C0004368026803990298FEF7C4F902460B4676
:1024D0000791069004990898FEF763F906460F469F
:1024E000049B089AFEF768F9079B069AFEF759F9CC
:1024F00005918949049079440D984018C368826811
:1025000003990298FEF7A6F9059B049AFEF749F98C
:102510006D1CBDE70998002809DA01226068D2071E
:10252000504060600A9819B04042F0BD02E00A983D
:1025300019B0F0BD09030122090B12050E9089188C
:102540001798109140007549400D40184111C00680
:10255000C00E0D9113902021081A149000200690AF
:1025600005250790139800280D980CD0401982007B
:102570006B487844875813998F4010184168149815
:10258000C1400F4304E04019810066487844475831
:1025900010993846FFF7B2FE06460A9138460E9962
:1025A000FFF7ACFE8A190A9B8A4201D2012100E0A2
:1025B0000021C9188C46AF00694679188B684E68AF
:1025C000C318834201D2012000E00020961936187A
:1025D000002802D0964202D903E0964201D201209F
:1025E00000E00020624612184E6068468B60C251BF
:1025F00028466D1E0028B5DC0121029849074018C5
:10260000800F1390029805998000039E049D0B9102
:10261000FEF751FE074630460891FEF754FE1D2294
:10262000D243FEF773FD10900F912846FEF74BFE44
:102630003D22D243FEF76AFD0E900D910B98FEF7F6
:1026400042FE5D22D243FEF761FD0B910C900D9B83
:102650000E9AFEF799F80F9B109AFEF795F83A46F6
:10266000089BFEF791F800250E463A462846089B3F
:10267000FEF797F80F9B109AFEF793F80D9B0E9AB2
:10268000FEF78FF80B9B0C9AFEF796F8264A274B1D
:10269000FEF7E0F807460D91254A264B31462846BD
:1026A000FEF7D8F83A460D9BFEF76EF80F46152256
:1026B0000C9092061D4B31462846FEF7CBF83B4660
:1026C0000C9AFEF761F8179A002A05DA139A52421B
:1026D00013920122D207514061602060139819B013
:1026E000F0BD0000FB21E93F7CD90240FB21F93F0E
:1026F000000040543163621A61B4D03D7370032E00
:102700008A19A33BFB21394183C8C96D305FE43F7F
:102710000000E03FA6140000661400000BFCFFFF61
:102720001A14000000140000182D4454FB21F93D38
:102730003326A611460B113CF0B51FB44E00F9200C
:102740007608800584B00F46864204DA0498FEF7C6
:102750004BF8002838D0049A3B4610461946FEF73D
:1027600079F8044602462C480D460B46062178446B
:1027700000F05CF822462B46FEF76CF801910090C1
:102780003946079B069A0498FEF764F807460291BB
:1027900020462946019B009AFEF75CF83A46029BC8
:1027A000FDF7FFFF074600220091D243204629464D
:1027B000FEF7ACFC194A96420ADA3A46009BFDF74E
:1027C000F0FF0022164B23E00020154909B0F0BDB0
:1027D000144A964202DD0024134D03E00122520503
:1027E000B51A002422462B46FDF7DBFF0646019171
:1027F00022462B4600200A49FDF7D3FF0D4604462A
:102800003A463046009B0199FDF7CBFF22462B4606
:10281000FDF7D2FF09B0F0BDBE1100003333D33F46
:102820000000F03F0000E93F0000D23FF8B5044649
:102830004F1EC8000838211815461E46086849680A
:102840003A4606239A4310D02A463346FEF702F84A
:102850003A46D200083AA3181A687F1E5B68FDF753
:1028600093FF06223B469343EED1022F23D0042F41
:1028700011D0062F2FD12A463346FDF7EBFFE36A2E
:10288000A26AFDF781FF2A463346FDF7E3FF636A3C
:10289000226AFDF779FF2A463346FDF7DBFFE3693D
:1028A000A269FDF771FF2A463346FDF7D3FF63693E
:1028B0002269FDF769FF2A463346FDF7CBFFE3683F
:1028C000A268FDF761FF2A463346FDF7C3FF636840
:1028D0002268FDF759FFF8BDF0B51FB40546480062
:1028E0000C46F9214008890586B088420BDA284653
:1028F0002146FFF71BFD042801D100F071F828469E
:1029000021460BB0F0BD2A46234610461946FDF776
:10291000A1FF06460F462A462346FDF79BFF00907F
:102920002548019132463B4605217844FFF77EFF5A
:10293000029010980391002829D0204A204B019939
:102940000098FDF787FF0490059168460FC8FDF7D2
:1029500081FF002201910090D24309990898FEF767
:10296000D5FB019B009AFDF71CFF32463B46FDF765
:1029700071FF099B089AFDF714FF059B049AFDF768
:1029800010FF2A462346FDF717FF0BB0F0BD0B469C
:1029900030463946029AFDF75DFF084A084BFDF7BD
:1029A000F3FE019B009AFDF755FF2A462346FDF7EB
:1029B000EBFE0BB0F0BD0000FA1000004955555574
:1029C0005555C5BF10B50122FEF7A0FB10BD002272
:1029D00010B5134610461146FEF774F910BD0000FD
:1029E000034A10B500201107FEF790FB10BD000050
:1029F00001FDFFFFF0B505460C4648008849400838
:102A000085B0884221DB4942411829430CD08549D1
:102A1000884203DC884211D1002D0FD02846214680
:102A2000FFF7D0FF05B0F0BD002C03DD002001460C
:102A300005B0F0BD7C487D4905B0F0BD0120FEF732
:102A40003BF9FFF7C4FF05B0F0BD794988423FDA92
:102A50007849884203DC7448774905B0F0BD2A46BE
:102A6000234610461946FDF7F5FE06460246734812
:102A70000F460B4606217844FFF7D8FE32463B4608
:102A8000FDF7E8FE00906E48019132463B46042176
:102A90007844FFF7CBFE32463B46FDF7DBFE0022D3
:102AA0005F4BFDF771FE02460B4601990098FEF759
:102AB00009F92A462346FDF7CDFE624A624BFDF72F
:102AC0007BFE2A462346FDF777FE574A5A4B4AE0DB
:102AD0000027FF43002C4ADA514E00223346284695
:102AE0002146FDF751FE3A46FEF710FB044602462A
:102AF00056480D460B4606217844FFF797FE2246BE
:102B00002B46FDF7A7FE00905148019122462B4627
:102B100004217844FFF78AFE22462B46FDF79AFEF1
:102B200000223346FDF730FE06460F462046294672
:102B300000F0E8FC04460D4632463B4601990098F9
:102B4000FEF7C0F822462B46FDF784FE3D4A3E4B79
:102B5000FDF727FE22462B46FDF716FE0122FEF763
:102B6000D5FA314A314BFDF727FE05B0F0BD002202
:102B70002B4B28462146FDF71FFE3A46FEF7C6FAC4
:102B800005460E4600F0BEFC00270C463A460B46B2
:102B90000490FDF7F9FD3A46234601910090104656
:102BA0001946FDF757FE33462A46FDF705FE019B01
:102BB000009AFEF787F800902648019133462A468E
:102BC00006217844FFF732FE33462A46FDF742FEDF
:102BD00002902148039133462A4604217844FFF7A6
:102BE00025FE33462A46FDF735FE00220C4BFDF745
:102BF000CBFD02460B4603990298FEF763F8234685
:102C0000049AFDF727FE019B009AFDF7BDFD3A46A9
:102C10002346FDF7B9FD0122FEF778FA05B0F0BDB5
:102C20000000F03F0000F07F182D4454FB210940C4
:102C30000000E03F0000603CFB21F93F4E0D00002A
:102C4000640D0000075C143326A6913CCC0C0000F8
:102C5000E20C0000020C0000180C0000F8B50F4652
:102C60002549884243DC254A974240D8FDF716FFA4
:102C70000D46044600F058F90022214BFDF7EAFD0D
:102C8000FDF7C8FB06462046294600F0EDFB002272
:102C90001B4BFDF7DFFDFDF7BDFB05463846FDF795
:102CA000FDFE0446009100F03FF90022144BFDF7B1
:102CB000D1FDFDF7AFFB07462046009900F0D4FB9D
:102CC00000220F4BFDF7C6FD00220E4BFDF75CFD09
:102CD000FDF7A0FB03463A462946304600F070F95E
:102CE0007F21C905884202DD0749884201DB0020B7
:102CF000F8BD0120F8BD0000DB0F493FDB0F49BFE5
:102D000000004940000028409A99C742F0B589B0B8
:102D100004460D464800069172494008884215DB7A
:102D20007149884203DC884207D1002C05D0204637
:102D30002946FFF747FE09B0F0BD6C48002D02DDC3
:102D40006B4909B0F0BD6B4909B0F0BD6A498842D2
:102D500011DA6A4988420BDA20462946FFF7E6FA7B
:102D6000042801D1FFF73CFE2046294609B0F0BDFA
:102D70000026F6435DE06D0061496D08884232DA55
:102D80006049884219DA0026012332469B07204613
:102D90002946FDF7F9FC0746019101222046294604
:102DA000FEF7B4F90022584BFDF7FBFC3A46019BB5
:102DB000FDF788FF04460D463BE001260022524BFA
:102DC00020462946FDF7E0FC0746009100224E4BC5
:102DD00020462946FDF7E5FC3A46009BFDF772FFC9
:102DE00004460D4625E04949884219DA02260022A8
:102DF000474B20462946FDF72DFD0022424BFDF7AB
:102E0000C3FC074602910022414B20462946FDF7AC
:102E1000C8FC3A46029BFDF755FF04460D4608E004
:102E2000032622462B4600203A49FDF74BFF044675
:102E30000D4622462B4610461946FDF70BFD074668
:102E40000B4602460191FDF705FD0246029032480D
:102E50000B46039106217844FFF7E8FC3A46019BB4
:102E6000FDF7F8FC00902D48019105217844039B63
:102E7000029AFFF7DBFC039B029AFDF7EBFC02468C
:102E80000B4601990098002E0BDAFDF77DFC2246D7
:102E90002B46FDF7DFFC22462B46FDF78DFC09B0E3
:102EA000F0BDFDF771FC22462B46FDF7D3FC1C4A12
:102EB000F6007A4493191A685B68FDF772FC2246A3
:102EC0002B46FDF76EFC174A7A4493191A685B6823
:102ED000FDF772FC069A002AE1DA0122D20751407E
:102EE00009B0F0BD000010440000F07F182D4454DC
:102EF000FB21F93FFB21F9BF0000DC3F0000203E31
:102F00000000F33F0000E63F0000F03F0080034078
:102F10000000F83F0000F0BF260A0000E8090000AA
:102F2000820900004C09000000B54A00224B5208FB
:102F300087B09A4202DC0022134625E01F4B9A42DA
:102F400008D1002808D10120FDF7B6FEFFF73FFDAC
:102F500007B000BD9A4203DBFFF734FD07B000BDA8
:102F600002AAFFF71BFA8107890F0BD00120012964
:102F70000ED0022916D0009002A80FC8FFF7ACFCB3
:102F800007B000BD02A80FC8FFF7D6FB07B000BD11
:102F9000009002A80FC8FFF79FFC0122D207514002
:102FA00007B000BD02A80FC8FFF7C6FB0122D20779
:102FB000514007B000BD0000FB21E93F0000F07F59
:102FC00070B515460A4604461946104600F05CFBEB
:102FD000014600F001FB06462946204600F054FB5E
:102FE000014600F0F9FA314600F0B0FAFDF756FD5F
:102FF00000F088FAFDF70EFA70BD0000F7B506463E
:1030000088B00D46002000F0BBF92D4841780078CB
:103010008F194019FDF740FE04463846FDF73CFE87
:10302000214600F065F8012000F0AAF901243EE0F5
:1030300023486200131819462039CF7FBF1906971D
:10304000897F491900915978805C8F194019FDF7E3
:1030500023FE079003903846FDF71EFE07460098B2
:10306000FDF71AFE01900698FDF716FE3A46039BFF
:103070000199FFF7A5FF8121C90588420CDC1048A2
:10308000401E0078002802D1012000F079F938466E
:10309000079900F02DF809E0002000F071F938469A
:1030A000079900F025F8012000F06AF9641C0A98DD
:1030B0008442BDDB002000F063F90BB0F0BD0000DE
:1030C00001000020FEF758FAFEF794FFFEF7BCFE61
:1030D000FEF7E6FE00F06AF97D200001FEF754F9E4
:1030E0000921AD22C9434B20FFF788FFFEE700000E
:1030F000F3B5012083B080079549FFF715FF002243
:10310000944BFDF7A7FB0022934BFDF755FB00F016
:10311000F9F9FDF77FF9074600231A460499039849
:10312000FFF74EFF05468D4900F056FA0646394630
:10313000084600F051FA044629460290084600F07D
:103140004BFA874900F002FA214600F09DFA314619
:10315000FDF7CEFCFDF7A2FCFFF74CFCFDF75AF99A
:10316000044603990498FDF7C3FCFDF797FCFFF7AD
:10317000CDFDFDF74FF9214600F086FA0090FDF7EE
:103180008DFC0D460446FFF7CFFE0022754BFDF780
:1031900061FBFDF73FF906462046294600F064F939
:1031A0000022704BFDF756FBFDF734F901903146D4
:1031B000039800F069FA04460199049800F064FA53
:1031C0002146FDF795FCFDF769FCFFF79FFDFDF734
:1031D00021F905466149384600F0FEF90446604988
:1031E000029800F0B3F9604900F04EFA2146FDF76D
:1031F0007FFCFDF753FCFFF7FDFBFDF70BF90146E4
:10320000284600F0A3F9FDF749FC04460291FFF7B8
:103210008BFE0022534BFDF71DFB05460F46304643
:10322000FDF73CFC2A463B46FDF7AEFAFDF7F2F807
:1032300006462046029900F017F90022494BFDF797
:1032400009FB04460D460198FDF728FC22462B4653
:10325000FDF79AFAFDF7DEF805460146434B0022DA
:103260003046FFF7ADFE04463C4900F0B5F907468D
:103270002146084600F0B0F9394900F067F93849AD
:1032800000F002FA3946FDF733FCFDF707FCFFF7C3
:10329000B1FBFDF7BFF8044631462846FDF728FC90
:1032A000FDF7FCFBFFF732FDFDF7B4F801462046C1
:1032B00000F04CF9074601460098FFF7CFFC0128C3
:1032C00043D12B4C0098214600F086F9294D294620
:1032D000FDF70EFC06462146384600F07DF92946EA
:1032E000FDF706FC054624480168304600F0CCF99D
:1032F00040004008FDF7D2FB204F00223B46FDF77F
:10330000A9FAFDF771FA04461B48103001682846F7
:1033100000F0BAF940004008FDF7C0FB00223B4630
:10332000FDF798FAFDF760FA07463146124800F0BB
:1033300077F811482946103000F072F8BC4201DDE0
:10334000204600E03846FEF71FF805B0F0BD00004B
:1033500052C1004000409F4000A8A6400000C84263
:1033600000401C45000049400000C84300004041A7
:1033700000003443DB0F49402C08002000002440AB
:1033800010B507490128087007D00021054800F052
:1033900047F8C820FDF7F8FF10BD0349F6E7000025
:1033A000000000204C0800200000A0C110B5194802
:1033B000174C04218460C160174941601030174ADE
:1033C000846042600021C16010300C228460C260C1
:1033D000416032212046FEF7F7FD00212046FEF72E
:1033E000C4FD04212046FEF7C0FD0C212046FEF757
:1033F000BCFD0021074800F013F8064800211030FA
:1034000000F00EF803480021203000F009F810BD4C
:10341000000400402C080020000040C00000404094
:1034200010B5044608462160616800F08FF80A492B
:1034300000F08CF8FDF732FB084A094BFDF70AFA59
:103440000022084BFDF7A0F9FDF7CEF982B2E16842
:10345000A068FEF7A9FD10BD000034428EE3388E4F
:10346000E338264000408F4000B54A00234B520805
:1034700087B09A4203DC00221346009229E0204BD9
:103480009A4208D1002808D10120FDF715FCFFF76A
:103490009EFA07B000BD9A4203DBFFF793FA07B02C
:1034A00000BD02AAFEF77AFF8107890F01200029DB
:1034B0000CD0012911D0022915D002A80FC8FFF79E
:1034C0003BF90122D207514007B000BD009002A88D
:1034D0000FC8FFF701FA07B000BD02A80FC8FFF739
:1034E0002BF907B000BD009002A80FC8FFF7F4F950
:1034F0000122D207514007B000BD0000FB21E93F87
:103500000000F07FF8B506460C46FDF72FFE051EBD
:103510000F4600D00120014349000B484908411AD9
:10352000C90F0DD0002E01D0012100E000210C4375
:1035300061004908401AC00F02D10120FDF7BCFB11
:1035400028463946F8BD00000000F07F70B501251F
:103550000400ED074C4020D4441A01D2001B091985
:10356000C60D4B00F2B2FF2A29D01B0E2CD0000250
:103570000C02D31A2C43DC402843051910D2280A28
:1035800002D3401C6D0611D0761EF6058019FF2A65
:1035900000DA70BDC00DC00570BD694000F07AF85A
:1035A00001200543C541521C761CE8E764089C4095
:1035B000C90161408900E7D10124A043E4E71B0E63
:1035C000440200D0034870BD002AFCD1C00FC007E0
:1035D00070BD00BF0000C07F70B5420064414B0069
:1035E0005C41120E39D01B0E38D0FF2A3CD0FF2B85
:1035F0003AD040024902400A490A060045184E43A3
:10360000000A090AD2184843ED017F3A0104731AEF
:103610004019190C4318990F04D001215B08490780
:103620005B1A521CD80904D3401CF50301D19D0636
:1036300007D0FF2A08D2D50506D0E4072043401959
:1036400070BD0125A843F4E7002A01DCE00770BD46
:103650002402FF202043C00570BD1B0EFF2A03D0AB
:10366000FF2B01D0E00770BDFF2645003606B542AE
:1036700006D84D00B54203D8D218FF2A00D0E7E79C
:10368000004870BD0000C07F70B501250400ED0743
:103690004C4022D4441A02D26C40001B0919C60DBA
:1036A0004B00F2B2FF2A4BD01B0E50D000020C028E
:1036B000D31A2C43DC40A843051B05D5AD0019D314
:1036C0006D08761E521E37D0F605280A01D28019E1
:1036D00070BD70416D0603D070BD6940FFF73CFFBF
:1036E0009C4009026140490001D0401E70BD012488
:1036F000A04370BD6D081DD001202B0C01D12D04FD
:1037000010302B0E01D12D0208302B0F01D12D01CD
:10371000001DAB0F01D1AD00801CEB0F01D16D007E
:10372000401C6D00361A121A680AF5054019012A64
:1037300002DB70BD002070BDC036300AC00770BD0E
:103740001B0E440201D1FF2B00D1024870BD002A9C
:10375000F0D070BD0000C07F020304050607080911
:103760000A0B0C0D0E0F10100102030405060708CA
:10377000090A0B0C0D0E0F100000000000000000E5
:1037800001020304060708098182838485868788ED
:10379000898B8C8D8E8F919293959697999A9C9DFB
:1037A0009FA0A2A3A5A7A8AAACAEB0B2B3B5B7B963
:1037B000BCBEC0C2C5C7C9CCCED1D4D7D9DCDFE22C
:1037C000E6E9ECF0F3F7FAFE555555555555C53F6A
:1037D0007D6FEB0312D6D4BF5544880E55C1C93F47
:1037E0003B8F68B52882A4BF88B20175E0EF493FDE
:1037F00009F7FD0DE13D023F4B2D8A1C273A03C01E
:10380000C88A599CE52A004059018D1B6C06E6BF09
:1038100082922EB1C5B8B33F4FBB610567ACDD3FA7
:10382000182D4454FB21E93F9BF681D20B73EF3FE7
:10383000182D4454FB21F93FE2652F227F2B7A3C5F
:10384000075C143326A6813CBDCBF07A8807703C18
:10385000075C143326A6913CC4EB98999999C9BF8B
:10386000711623FEC671BCBF6D9A74AFF2B0B3BFC0
:103870009AFDDE522DDEADBF2F6C6A2C44B4A2BF80
:103880000D5555555555D53FFF8300922449C23FEC
:103890006E204CC5CD45B73F513DD0A0660DB13F20
:1038A000EB0D76244B7BA93F11DA22E33AAD903F32
:1038B00080807F7E7D7C7B7A79787776767574736D
:1038C000727171706F6E6E6D6C6C6B6A6A6968682C
:1038D000676666656464636362616160605F5F5EC2
:1038E0005E5D5D5C5C5B5B5A5A5959585857575638
:1038F000565555555454535352525251515050509D
:103900004F4F4F4E4E4D4D4D4C4C4C4B4B4B4A4AEE
:103910004A49494948484847474747464646454532
:10392000454444444443434343424242424141416B
:103930004C5555555555A53F7751C1166CC156BFCD
:103940009015CB19A001FA3EAD529C804F7E92BEDD
:10395000C4B1B4BD9EEE213ED43888BEE9FAA8BDFC
:1039600000004054FB21F93F3163621A61B4D03D3D
:103970000000601A61B4D03D7370032E8A19A33B16
:103980000000002E8A19A33BC14920259A837B3968
:1039900000000000000000006E83F9A22915444ECB
:1039A000D15727FCC0DD34F5999562DB4190433C4B
:1039B000AB6351FE61C5BBDE3A6E24B7E0D24D4227
:1039C000EA2E49061C92D1091CEB1DFE3EA729B127
:1039D000F53582E88444BB2E26709CE9417E5FB4B5
:1039E00039D69139F43953838B5F849C3B28F9BDD8
:1039F000FF97F81F0F9805DE8B112FEF1F6D0A5AE6
:103A0000CF7E366DB709CB27663F464F2DEA5F9EC6
:103A1000C7BA27757BF1E5EBF739073DEA92528A81
:103A2000B15FFB6B085D8D1FA6F810111111813F6E
:103A3000D561C119A0012ABF7DFEB157E31DC73E64
:103A4000EB9C2B8AE6E55ABE7CD5CF5A3AD9E53DA8
:103A5000703A000800000020E4070000321300085C
:103A6000D83B0008E4070020DC060000F400000852
:103A7000111850020302040205020602070208029E
:103A800009020B020C020D020E020F0210021102BB
:103A90001202130A030A040A050A060A080A090A96
:103AA0000A0A0B0A0C0A0D0A0E0A0F0A100A110A5A
:103AB000120A130A14030B040B050B060B070B0861
:103AC0000B0904791B48FA0914091408150715068F
:103AD0001606160516041603150314031303130420
:103AE0001204120511051106100610070F080F0920
:103AF0000F0A0F0B0F0C0F0D0F0E0F0F0F101011E1
:103B00001012111212131313141315131B031B0598
:103B10001B071B091B0A1B0B1B0C1B0D1B0E1B0F72
:103B20001B101B111B121B131C131D131E131F1321
:103B30002013201224032404240624072408240A22
:103B4000240B240C240D240E240F241024112412E1
:103B500023122313241325132613271328132913A1
:103B600030042F042F052E052D062C072C082C09B8
:103B70002C0A2C0B2C0C2C0D2C0E2D0E2D0F2D1079
:103B80002E112E122F122F1330133214331434141B
:103B90003514351336133612371237113810380FE3
:103BA000380E380D380C380B380A38093709370801
:103BB000370736063505350434043304320431043E
:103BC0006001FF01FF01FF01FF01FF01FF017F32E3
:083BD00001820413127A0000C7
:04000005080000B13E
:00000001FF
