:020000040800F2
:10000000300700205501000861170008CF150008CF
:1000100000000000000000000000000000000000E0
:10002000000000000000000000000000E3170008CE
:100030000000000000000000E1170008E5170008BC
:100040006701000800000000670100086701000860
:1000500067010008670100086701000867010008E0
:100060000000000067010008670100086701000840
:100070006701000867010008670100080000000030
:100080006701000800000000000000006701000890
:100090000000000067010008670100086701000810
:1000A0000000000067010008000000006701000870
:1000B00000F002F800F03EF80CA030C80838241810
:1000C0002D18A246671EAB4654465D46AC4201D190
:1000D00000F030F87E460F3E0FCCB6460126334284
:1000E00000D0FB1AA246AB4633431847E81C000079
:1000F000081D0000103A02D378C878C1FAD8520718
:1001000001D330C830C101D504680C6070470000CD
:100110000023002400250026103A01D378C1FBD823
:10012000520700D330C100D50B6070471FB51FBD0B
:1001300010B510BD00F0B0FC1146FFF7F7FF01F05D
:1001400013FD00F0C8FC03B4FFF7F2FF03BC00F09E
:10015000CBFC00000748804707480047FEE7FEE762
:10016000FEE7FEE7FEE7FEE704480549054A064BC1
:100170007047000047180008B10000083001002057
:10018000300700203003002030030020FEB5054674
:1001900010460C46184373D0AE468C460020AD1A6C
:1001A00001469C4167D36646002701243D46B61AA6
:1001B0009D4102D313463A462124654676462F04D4
:1001C000360C3E432D0CB61A9D4104D3150C1B046E
:1001D0002B4312041034654676462F06360A3E43FA
:1001E0002D0AB61A9D4104D3150E1B022B43120291
:1001F0000834654676462F0736093E432D09B61A60
:100200009D4104D3150F1B012B431201241D65468C
:100210007646AF07B6083E43AD08B61A9D4104D3F3
:10022000950F9B002B439200A41C65467646EF0772
:1002300076083E436D08B61A9D411AD392185B4169
:10024000641C16E00018764665464941B71A9D4180
:100250000191009009D36046B11A98418E468446B8
:10026000009801990025401C6941DD0752082A4386
:100270005B08641EE6D57246634603B0F0BDFFE737
:1002800000200146C046C0462A462346F5E701E065
:1002900004C0091F0429FBD28B0701D50280801CF2
:1002A000C90700D00270704700290BD0C30702D0E5
:1002B0000270401C491E022904D3830702D5028024
:1002C000801C891EE3E70022EEE70022DFE7002220
:1002D00003098B422CD3030A8B4211D300239C4683
:1002E0004EE003460B433CD4002243088B4231D3FB
:1002F00003098B421CD3030A8B4201D394463FE08F
:10030000C3098B4201D3CB01C01A524183098B42EE
:1003100001D38B01C01A524143098B4201D34B01D7
:10032000C01A524103098B4201D30B01C01A52413A
:10033000C3088B4201D3CB00C01A524183088B42C1
:1003400001D38B00C01A524143088B4201D34B00AA
:10035000C01A5241411A00D201465241104670471C
:100360005DE0CA0F00D04942031000D34042534021
:1003700000229C4603098B422DD3030A8B4212D3E1
:10038000FC22890112BA030A8B420CD38901921113
:100390008B4208D3890192118B4204D389013AD050
:1003A000921100E08909C3098B4201D3CB01C01A25
:1003B000524183098B4201D38B01C01A5241430938
:1003C0008B4201D34B01C01A524103098B4201D326
:1003D0000B01C01A5241C3088B4201D3CB00C01A93
:1003E000524183088B4201D38B00C01A5241D9D2AB
:1003F00043088B4201D34B00C01A5241411A00D22C
:100400000146634652415B10104601D34042002B27
:1004100000D54942704763465B1000D3404201B5A6
:100420000020C046C04602BD7047704770470000BC
:10043000F0B50C46871A9C410D46861A9D4103D2A1
:10044000C01BA141D21963410D0D1F0DC94EEC1BFC
:10045000AE435CD07F057F0D0026002F51D02D05C7
:10046000AC46A943DD020123ED0A1B051D432023F1
:100470001B1B24D41746E740381871412F46E7402C
:10048000CC199D402818314661410C0D27D161449B
:100490009A4013D50023401C594152000ED1400808
:1004A000400001224B005205D34207D305204007EC
:1004B000C14201D5B04900E0B0493046F0BD6B0003
:1004C000002A00D001229A181F23203C1B1B01D5B3
:1004D000002302E0E540281871410C0DD7D001241B
:1004E00024050919C407CD0740084908E40F28432B
:1004F0006144002CD5D00024401C61419A40D0D1E9
:10050000CDE76A05520DD9D1C90FC907D5E79C4D72
:100510004E00002801D0012400E0002434195F00BF
:10052000002A01D0012600E00026BE19954FAC42FA
:100530000CD8AE420AD8B44206D001256D05EC4273
:10054000BCD010461946F0BD9942FCD00020394677
:10055000F0BDF0B51FB40C460F46811A9F412546E9
:10056000861A9D4106D20125ED076F40401ABC4115
:1005700052187B41210D1E0D8D1BAC467D4D8D43C8
:100580007ED075056D0D7CD00D05AE46AC431B03CA
:100590001B0B794D52429D41202366469B1B14D371
:1005A0001746F740381800260090744160462F46E1
:1005B0000741E41900989D402818664116D47146F9
:1005C00071189A4025D5012320E093182A466A41E4
:1005D0005200002B00D0521C1E23203E9B1B002BE0
:1005E00061DD3541EE1728186641E8D500187641DF
:1005F0005B1C9A4000D3401C4B05F3181524E340C4
:1006000010D3002B52D071467118D30FC01802D3EB
:10061000491C05B0F0BD0123DB079A42F9D140081F
:100620004000F6E701225205B21801D1002853D04C
:100630000123CC0ADB029943891E002A08D1020C4F
:1006400003D0020C0004103902E0024600202039D9
:100650000023550B05D112020823550B01D152017D
:100660000D23550C01D112011B1DD50C01D1920097
:100670009B1C150D01D152005B1C2025EE1A01E0D8
:100680002CE022E00546F54015439840CA1AE107E0
:1006900069181305C918002ABBDA03204007081897
:1006A000C10FC9070FE071466118B2E7F1074008B2
:1006B0000843711071444A000CD001235B059A4233
:1006C000A7D2C90FC9070020A3E74905490D26D1C4
:1006D000002001E00028F4D100219AE7284D6600AF
:1006E000002801D0012100E0002171185F00002ADC
:1006F00001D0012600E00026BE19224FA94210D8E1
:10070000AE420ED8B14208D001256D05E94206D0AF
:100710001946A802414010467BE79C4201D0214681
:1007200077E70020394674E710B50C465C4005D5E4
:100730000124E4076340FFF70CFF10BDFFF778FECC
:1007400010BD30B40C465C4004D50124E40763407E
:1007500030BC6DE630BCFCE670B50124E4076140B6
:100760000D465D4002D4FFF763FE70BD6340FFF7A6
:10077000F0FE70BDFF0700000000F0FF0000F07FFA
:100780000000E0FF0000F87F30B50346CA02400DCC
:100790001043164D164C0A1502D02043002A06DBE2
:1007A000AA1A002A12DDD040FF2A0BDC30BD520508
:1007B000520D01D140004008AA1A07D4D04040424F
:1007C000FF2A01DD002030BD0028FCDD4A00002B9F
:1007D00001D0012000E00020101801225205D04273
:1007E000F0D8C817C043604030BD00001E040000B0
:1007F00000000080F0B58B4C0F09254689B0BD4341
:100800007BD01D092646AE43FAD00E465E402740F7
:10081000F60F3E43254071D024012142FBD0FF2436
:10082000AD19A4042D1B039501252D05DB02DB0A60
:10083000C9022B43C90A29431E010901040F130FE2
:10084000050121431701880B820391432D098C4632
:10085000A90B1E438A039543B30B9A0396433F09A2
:10086000BA0B9403A74302962E467E430497B646DE
:100870004E19D7190C460196544305977E43371BF2
:100880007646BF1B3601B646BE0B36190096764635
:10089000BC043719009C01D3641C00946400002F31
:1008A00001D001263443029E049F754366467E4371
:1008B0000496760034196E0034190094029C019E4F
:1008C0001C196643751BAE46069465464519059C82
:1008D00005956C43594375460891691A0191049E28
:1008E00001465143A41B0491611A009C0791E10643
:1008F00005D061090122114302E072E06EE0610956
:10090000089D00272C0A2D066918049D7C412A0A9F
:100910002D066918019D6241AC0DAD026D18544160
:10092000079A910D920255196141029A6446584303
:100930005443069B059A5A43121A131B9A0E9B01A5
:100940005B187A41010B0005C3185141220A2006A9
:1009500044195A419A4200D2491C01204002814266
:1009600003D315230226F64302E014230326F6439D
:100970002020C51AA9401746AF40DA400A43204656
:100980000399D8400914731819055118039A38436C
:10099000D2075140AC4009D00122944006D3002236
:1009A000401C5141002C01D1400840001E4A934296
:1009B00012D3012203989206904207DB05204007DC
:1009C00009181A480143C012414004E003204007BF
:1009D0000818C10FC907002009B0F0BD0020F107B9
:1009E000FAE705180C464C4111486D42A04115D359
:1009F00094181A465A410E48644290410ED3012081
:100A00004A004005824209D35A00824206D3594027
:100A1000C90F084AC90700201143DDE70020064935
:100A2000DAE700000000FF07FE070000FFFFFF7F7E
:100A30000000E0FF0000F07F0000F87F0121C90501
:100A40000123411842001B06D3185B0E0AD0C110C7
:100A50000722D206891840075242D14201D55200DE
:100A600089187047090208D50146002A03D0C10F32
:100A7000C9070020704710467047420202D000208C
:100A800002497047072109050143F4E70000F87F98
:100A900000487047D00000207546FFF7F9FFAE46CA
:100AA000050069465346C008C000854618B020B509
:100AB000FFF75AFB60BC00274908B6460026C0C5B0
:100AC000C0C5C0C5C0C5C0C5C0C5C0C5C0C5403D06
:100AD00049008D46704710B50446C046C0462046C2
:100AE000FFF731FB10BD000001491820ABBEFEE747
:100AF000260002007047000070B5044600F0E6F8DA
:100B00000546601C02D004480078241800F0DEF886
:100B1000401BA042FAD370BD00000020F8B50023AE
:100B200003240125BAE02E469E40B44632407CD0D4
:100B30000E79B607B60F012E01D0022E17D18668A6
:100B40002746B6465E00B74000967646BE43B64698
:100B5000CF68009EB7407646374387604668674651
:100B6000BE430F79FF06FF0F9F40374347600E7962
:100B7000F643B6070ED0C6682746B4465E00B646B2
:100B8000B7406646BE43B4468F687646B740664671
:100B90003743C7600E79B607B60F022E14D1DE08B0
:100BA000B60036180096366A5F07B446FE0E0F2769
:100BB000B646B7406646BE43B4460F697646B74070
:100BC00066463743009E376206682746B4465E0095
:100BD000B646B7406646BE430F79B446BF07BF0F5F
:100BE0007646B7406646374307604E68B603B60F91
:100BF00053D02D4FBE692E43BE61BE699F08F607D4
:100C0000F60F2A4EBF00BE190096B6680F27B446ED
:100C10009E07360FB646B7406646BE430927FF0615
:100C2000B446B84202D1002710E036E0204FB84267
:100C300001D101270AE01F4FB84201D1022705E088
:100C40001D4FB84201D1032700E005277646B74083
:100C500066463743009EB760184EB6684F689643A5
:100C6000FF0200D51643154FBE60FE684F689643DD
:100C7000BF0200D51643114FFE607E684F68964351
:100C8000BF0300D516430D4F7E603E684F68964304
:100C9000FF0300D51643094A16605B1C0A68164616
:100CA000DE4000D03FE7F8BD0010024000000140E8
:100CB0000004004800080048000C004800040140FF
:100CC000002A01D0816170478162704701488068C5
:100CD00070470000000000200248816802788918EF
:100CE000816070470000002010B50648016810229E
:100CF00011430160032000F007F800F027F80020FE
:100D000010BD00000020024070B504460D4D7D204E
:100D10002978C000FFF7DBFA01460B480068FFF7AF
:100D2000D6FA00F09DFA002809D1042C07D200223F
:100D30002146401E00F01EF800206C6070BD0120AE
:100D400070BD0000000000200C00002008B508481D
:100D50008169012211438161816911400091C26959
:100D600001040A43C261C0690840009008BD000048
:100D70000010024010B500F0D5FE10BDF8B50F46CA
:100D8000060059D03A4D2868C007C00FB84209D2B2
:100D9000286840084000384328602868C007C00F12
:100DA000B84249D13068334C81070CD5400704D58F
:100DB000606807210902084360606068F021884389
:100DC000B168084360603078C00726D07068012899
:100DD0000ED0216802280ED0890700292CDA61681C
:100DE0008908890001436160FFF770FF00900DE002
:100DF00021688903F1E78901EFE7FFF767FF0099B1
:100E0000411A1D48814201D90320F8BD60680C21B8
:100E10000840716889008842EFD12868C007C00F78
:100E2000B8420BD928684008400038432860286839
:100E3000C007C00FB84201D00120F8BD307840078C
:100E400006D56068072109028843F168084360609D
:100E500000F018F86168094A0906090F515CC8409A
:100E6000074908600320FFF74FFF0020F8BD00008E
:100E7000002002400010024088130000C41D00083A
:100E80000C00002010B5104A51680C200B4603409E
:100E90000E48042B17D0082B15D18B020C4C1B0FBE
:100EA000E45CD26A0A4B1207120F10339A5CC90332
:100EB00005D500231946FFF769F9214601E02046D0
:100EC000044900F017FE10BD0010024000127A0025
:100ED000A41D000800093D00FEB5040070D0207874
:100EE000DC4DC0074AD068680007800F012807D092
:100EF00068680007800F022809D16868C00306D51A
:100F0000286880033AD560680028E7D036E0616839
:100F1000012914D001208004002901D0052914D012
:100F20002A68012109048A432A60296881432960CB
:100F30006068002816D0FFF7C9FE06460EE0286854
:100F40000121090408432860F2E729680143296068
:100F5000F5E7FFF7BBFE801B64286ED82868800386
:100F6000F7D50BE0FFF7B2FE064604E0FFF7AEFE52
:100F7000801B6428F1D828688003F7D420780126E4
:100F8000800700283CDA68680007800F07D068688F
:100F90000007800F022809D16868C00306D42868BA
:100FA000800716D5E06801280AD112E0E068002821
:100FB000286816D030432860FFF788FE074605E012
:100FC00043E1FFF783FEC01B0228C6D828688007CC
:100FD000F7D52868F82188432169C90008432860AB
:100FE0000EE0400840002860FFF770FE074604E06E
:100FF000FFF76CFEC01B0228AFD828688007F7D423
:101000002078000722D5E0690028686A0ED03043B6
:101010006862FFF75BFE074604E0FFF757FEC01B60
:1010200002289AD8686A8007F7D50FE04008400088
:101030006862FFF74BFE074605E09DE0FFF746FEBE
:10104000C01B022889D8686A8007F7D42078042753
:101050004007002860DA00200190E869C00008D449
:10106000E969B8060143E961E9690140012000919D
:10107000019079480168C90511D4016882151143AE
:101080000160FFF723FE009005E0FFF71FFE0099C7
:10109000401A642870D870480068C005F5D5A0686B
:1010A00001280AD0002801D0052810D0286A40085D
:1010B00040002862286AB84301E0286A3043286269
:1010C000A068002812D0FFF701FE00900AE0286A0D
:1010D00038432862F1E7FFF7F9FD0099411A5F48AC
:1010E000814249D8286A8007F5D50DE0FFF7EEFD6B
:1010F000009006E0FFF7EAFD0099411A5748814247
:101100003AD8286A8007F5D40198002804D0E96904
:10111000012000078143E9612078C00635D5606968
:1011200001280CD0401D686B23D038436863686B7E
:10113000400840006863FFF7C9FD064622E0686B7F
:1011400038436863686B30436863FFF7BFFD06464A
:1011500004E0FFF7BBFD801B02285BD8686B8007AB
:10116000F7D5686BF8218843A169C9000843686313
:101170000BE0B8436863F4E74CE0FFF7A7FD801B82
:10118000022847D8686B8007F7D4206A00285ED011
:1011900069680907890F022942D00126360602280C
:1011A000286805D0B0432860FFF790FD044633E07F
:1011B000B0432860FFF78AFD074604E0FFF786FD8D
:1011C000C01B022826D828688001F7D4E86AE16AA3
:1011D000000900010843E862616AA06A084369687F
:1011E0003D22120491430843686028683043286018
:1011F000FFF76CFD044604E0FFF768FD001B0228C2
:1012000008D828688001F7D521E0FFF75FFD001BB3
:10121000022801D90320FEBD28688001F5D416E01C
:101220000128F8D06868E96A01221204636A024062
:101230009A420AD10907E26A090F914205D10F21AA
:1012400089040840A16A884201D00120FEBD002027
:10125000FEBD000000100240007000408813000036
:10126000094910B5401E884201D9012010BD074C24
:1012700060610321081F00F055FC0020A0610720D9
:101280002061002010BD0000FFFFFF0000E000E033
:10129000F0B502462032137F012B1BD001261677B2
:1012A0000223537705686B68AC687027BB430F68EF
:1012B0001F436F600068084B984202D0074B98426A
:1012C00004D1802349689C432143816056770020E4
:1012D0001077F0BD0220F0BD002C0140000400405A
:1012E00070B5040005D025462035687F002802D05F
:1012F00006E0012070BD00202877204600F014F899
:1013000002206877211D206800F09EFA01204034F9
:10131000A071A877E87720706070A070E0702071ED
:1013200060716877002070BD08B50B4A01680B48F2
:10133000914205D18269C1140A438261806907E044
:10134000074A914206D1C26902210A43C261C069BB
:101350000840009008BD0000002C01400010024031
:1013600000040040F8B5054604462035287F0026D5
:10137000012817D00120287702206877226890681A
:101380007727FF23B8431B029843906008685028D2
:1013900038D00EDC20284FD006DC00284CD0102896
:1013A0001ED149E00220F8BD302845D0402817D191
:1013B0003AE060282ED0702819D001221203801A3A
:1013C0000FD090420CD1CB684A688968206800F041
:1013D00077FA20688168012292031143816000E05E
:1013E000012601206877002028773046F8BDCB68B9
:1013F0004A688968206800F063FA21688868384381
:101400008860EEE7CA684968206800F04FFB502109
:10141000206806E0CA684968206800F058FB60212F
:10142000206800F058FADCE7CA684968206800F0D4
:101430003DFB40212068F4E7226801461046F0E7B2
:1014400070B586B0044614216846FEF73EFF164983
:101450002068884225D11548426949130A434261F0
:1014600042690A400592426949000A434261406963
:10147000002408400590C020009002250126092084
:1014800002946946049601950394C006FFF746FB53
:101490000095029469460648049601950394FFF767
:1014A0003DFB06B070BD000000040040001002408B
:1014B00000040048F8B5064604462036307F002771
:1014C0000D4601280ED001203077002A0CD0042AC6
:1014D0001BD0082A2FD00C2A3ED0012700203077BD
:1014E0003846F8BD0220F8BD206800F0FDF92068FC
:1014F00081690822114381612068826904218A433D
:101500008261206881692A6912E0206800F028FA67
:10151000206882690121C9020A43826120688169C9
:101520000122920291438161206881692A69120235
:1015300011438161D2E7206800F04CFA2068C1694C
:1015400008221143C1612068C26904218A43C26133
:101550002068C1692A6912E0206800F077FA2068E3
:10156000C1690122D2021143C1612068C26901210F
:1015700089028A43C2612068C1692A691202114343
:10158000C161ABE770B5040005D025462035687F02
:10159000002802D006E0012070BD002028772046F8
:1015A00000F014F802206877211D206800F04CF943
:1015B00001204034A071A877E87720706070A07097
:1015C000E070207160716877002070BD7047FEE7A1
:1015D00010B586B014216846FEF777FE11484269BF
:1015E000012149040A43426142690A400592426965
:1015F00049000A434261406909240840E406059015
:10160000002210212046FFF75BFB102000900021F4
:10161000012002910391019069462046FFF77EFA6E
:1016200006B010BD0010024010B586B00024009432
:10163000174801940294039404941449059401609A
:101640002F21846041600461446112498461C1605A
:10165000FFF746FE002801D072B6FEE70120000326
:10166000009069460A48FFF77DFE002801D072B657
:10167000FEE7049404A906480594FFF709FE002834
:1016800001D072B6FEE706B010BD0000002C01408C
:1016900010000020FFFF000010B58EB0002407945A
:1016A000089409940A940B941C2168460C94FEF744
:1016B0000CFE2948274901602F21846041600461A4
:1016C00026498461C160FFF70BFE002801D072B685
:1016D000FEE701200003079007A91F48FFF742FE1D
:1016E000002801D072B6FEE71B48FFF74BFF002829
:1016F00001D072B6FEE70B940BA917480C94FFF7C4
:10170000C7FD002801D072B6FEE76020009001946A
:1017100002940022694604940F48FFF7CBFE00288C
:1017200001D072B6FEE7042269460B48FFF7C2FEFD
:10173000002801D072B6FEE70C2269460648FFF782
:10174000B9FE002801D072B6FEE70348FFF778FE25
:101750000EB010BD0004004058000020FFFF000044
:10176000FEE710B50368012213430360436CD40302
:1017700023434364002908D0042908D008290BD04A
:101780000C2908D1016A120303E0016A01E0016A31
:1017900010221143016210BD016AFF220132F8E7F5
:1017A000002907D0042907D0082907D00C2900D127
:1017B000026470474263704782637047C263704738
:1017C00010B50A46816A04460448491C5143006822
:1017D000FEF77DFD401EE06210BD00000C00002001
:1017E0007047704710B5FFF777FA10BD30B591B06C
:1017F00030216846FEF769FD00240D940120039016
:101800000E940225102009940490009505200F9451
:10181000C0040A900C9408950B946846FFF75CFB93
:10182000002801D072B6FEE707200C900E9401212B
:101830000D950F940CA8FFF7A1FA002801D072B6FD
:10184000FEE711B030BD704770B50268174B184EF7
:10185000984201D0B04203D17024A2434C68224385
:10186000144C154D984208D0B04206D0134EB042E9
:1018700003D0A04201D0A84204D103263602B243CD
:10188000CE6832438026B2434E69324302608A6892
:10189000C2620A688262984203D0A04201D0A84284
:1018A00001D1096901630121416170BD002C014032
:1018B0000004004000440140004801400020004076
:1018C00030B58468FF252D021B021343AC430B4344
:1018D0002343836030BD826870239A430A43072103
:1018E0000A43826070470000F0B5026A5208520055
:1018F0000262056A436882697024A24392080C68F8
:1019000092001443022295438A68134E2A43114DD4
:10191000A84204D0B04202D0104FB84206D10827E6
:10192000BA43CF681743042297433A46A84204D0EB
:10193000B04202D0094DA84206D103252D02AB4387
:101940004D691D438B692B43436084614968416342
:101950000262F0BD002C01400044014000480140FB
:1019600070B5026A10239A430262046A436882696E
:1019700073252D02AA430D682D021543202294439E
:101980008A6812012243104CA04208D11446CA684A
:101990008026B443120122434024A24305E00B4CAD
:1019A000A04202D00A4CA04208D10324A402A343BF
:1019B0004C69A4001C438B699B00234343608561F1
:1019C00049688163026270BD002C014000440140FF
:1019D0000048014070B5026AFF2301339A43026256
:1019E000046A4368C2697025AA4392080D68920090
:1019F00015430122520294438A6812022243104C7A
:101A0000A04207D1C414A243CC6824022243061585
:101A1000B24305E00B4CA04202D00B4CA04208D1CF
:101A200003242403A3434C6924011C438B691B0139
:101A300023434360C5614968C163026270BD000011
:101A4000002C0140004401400048014030B5026ACA
:101A500001231B039A430262056A4268C369732427
:101A60002402A3430C6824021C4301235B039D430F
:101A70008B681B032B430A4DA84205D0094DA84291
:101A800002D0094DA84205D10125AD03AA434D69F5
:101A9000AD012A434260C46149680164036230BDFC
:101AA000002C0140004401400048014030B5036A69
:101AB000046A6408640004628469F025AC4312017E
:101AC00022430A24A3430B438261036230BD30B535
:101AD000036A1024A34303628469036A0F252D035C
:101AE0001203AC432243A024A3430901194382619A
:101AF000016230BDF8B5040C8BB2264682B25E435B
:101B00000D0C1046370C58433604801900217941DA
:101B100016466E43370C36048019794126466E43CB
:101B20008919F8BD8307FF22DB0E9A408907090E49
:101B30009940002808DB830809489B001B18186897
:101B400090430843186070470007000F0838830867
:101B500004489B001B18D86990430843D86170471C
:101B600000E400E000ED00E0FFF7BEF8FFF73EFE06
:101B7000FFF72EFDFFF790FDFFF756FD00F006F88A
:101B80007D200001FEF7B8FFFEE7000010B5194800
:101B9000174C04218460C160174941601030174A16
:101BA000846042600021C16010300C228460C260F9
:101BB000416032212046FFF703FE00212046FFF757
:101BC000D0FD04212046FFF7CCFD0C212046FFF775
:101BD000C8FD0021074800F013F806480021103026
:101BE00000F00EF803480021203000F009F810BD85
:101BF00000040040A0000020000040C00000404061
:101C000010B5044608462160616800F01DF80A49D5
:101C100000F01AF8FEF712FF084A094BFEF7EAFD3A
:101C20000022084BFEF780FDFEF7AEFD82B2E168B0
:101C3000A068FFF7B5FD10BD000034428EE3388E7A
:101C4000E338264000408F4070B501250400ED07C1
:101C50004C4020D4441A01D2001B0919C60D4B0078
:101C6000F2B2FF2A29D01B0E2CD000020C02D31A8C
:101C70002C43DC402843051910D2280A02D3401C0B
:101C80006D0611D0761EF6058019FF2A00DA70BDA8
:101C9000C00DC00570BD694000F022F80120054369
:101CA000C541521C761CE8E764089C40C9016140AC
:101CB0008900E7D10124A043E4E71B0E440200D0D1
:101CC000034870BD002AFCD1C00FC00770BD00BF23
:101CD0000000C07F70B501250400ED074C4022D400
:101CE000441A02D26C40001B0919C60D4B00F2B217
:101CF000FF2A4BD01B0E50D000020C02D31A2C43EB
:101D0000DC40A843051B05D5AD0019D36D08761E30
:101D1000521E37D0F605280A01D2801970BD7041D5
:101D20006D0603D070BD6940FFF794FF9C40090227
:101D30006140490001D0401E70BD0124A04370BD28
:101D40006D081DD001202B0C01D12D0410302B0E5D
:101D500001D12D0208302B0F01D12D01001DAB0F39
:101D600001D1AD00801CEB0F01D16D00401C6D0056
:101D7000361A121A680AF5054019012A02DB70BDED
:101D8000002070BDC036300AC00770BD1B0E440273
:101D900001D1FF2B00D1024870BD002AF0D070BDE8
:101DA0000000C07F02030405060708090A0B0C0D9A
:101DB0000E0F10100102030405060708090A0B0C98
:101DC0000D0E0F10000000000000000001020304CF
:101DD00006070809F41D000800000020100000009C
:101DE000F4000008041E0008100000202007000076
:101DF00010010008010000000400000000000000C5
:041E000000127A0052
:04000005080000B13E
:00000001FF
